{
  "contractName": "ClearingFirm",
  "abi": [
    {
      "constant": true,
      "inputs": [
        {
          "name": "",
          "type": "uint256"
        }
      ],
      "name": "Trades",
      "outputs": [
        {
          "name": "tradeId",
          "type": "uint256"
        },
        {
          "name": "orderType",
          "type": "uint256"
        },
        {
          "name": "status",
          "type": "uint256"
        },
        {
          "name": "amount",
          "type": "uint256"
        },
        {
          "name": "noofstocks",
          "type": "uint256"
        },
        {
          "name": "stockname",
          "type": "string"
        },
        {
          "name": "AccountNumber",
          "type": "uint256"
        }
      ],
      "payable": false,
      "stateMutability": "view",
      "type": "function"
    },
    {
      "constant": true,
      "inputs": [
        {
          "name": "",
          "type": "uint256"
        }
      ],
      "name": "TradeAccounts",
      "outputs": [
        {
          "name": "accountNumber",
          "type": "uint256"
        },
        {
          "name": "balance",
          "type": "uint256"
        }
      ],
      "payable": false,
      "stateMutability": "view",
      "type": "function"
    },
    {
      "constant": false,
      "inputs": [],
      "name": "Constructor",
      "outputs": [],
      "payable": false,
      "stateMutability": "nonpayable",
      "type": "function"
    },
    {
      "constant": false,
      "inputs": [],
      "name": "setTradeAccounts",
      "outputs": [
        {
          "name": "AccountId",
          "type": "uint256"
        }
      ],
      "payable": false,
      "stateMutability": "nonpayable",
      "type": "function"
    },
    {
      "constant": false,
      "inputs": [
        {
          "name": "_AccountNmber",
          "type": "uint256"
        },
        {
          "name": "_StockName",
          "type": "string"
        },
        {
          "name": "_NoofStocks",
          "type": "uint256"
        },
        {
          "name": "_Amount",
          "type": "uint256"
        },
        {
          "name": "_OrderType",
          "type": "uint256"
        }
      ],
      "name": "addTradestoClear",
      "outputs": [
        {
          "name": "Id",
          "type": "uint256"
        }
      ],
      "payable": false,
      "stateMutability": "nonpayable",
      "type": "function"
    },
    {
      "constant": false,
      "inputs": [
        {
          "name": "buyerAccountId",
          "type": "uint256"
        },
        {
          "name": "sellerAccountId",
          "type": "uint256"
        },
        {
          "name": "buytradeId",
          "type": "uint256"
        },
        {
          "name": "selltradeId",
          "type": "uint256"
        },
        {
          "name": "Amount",
          "type": "uint256"
        }
      ],
      "name": "ClearTrade",
      "outputs": [
        {
          "name": "",
          "type": "bool"
        }
      ],
      "payable": true,
      "stateMutability": "payable",
      "type": "function"
    },
    {
      "constant": true,
      "inputs": [
        {
          "name": "id",
          "type": "uint256"
        }
      ],
      "name": "getTrade",
      "outputs": [
        {
          "name": "",
          "type": "uint256"
        },
        {
          "name": "",
          "type": "uint256"
        },
        {
          "name": "",
          "type": "uint256"
        },
        {
          "name": "",
          "type": "string"
        },
        {
          "name": "",
          "type": "uint256"
        },
        {
          "name": "",
          "type": "uint256"
        }
      ],
      "payable": false,
      "stateMutability": "view",
      "type": "function"
    },
    {
      "constant": true,
      "inputs": [],
      "name": "getTradeCount",
      "outputs": [
        {
          "name": "",
          "type": "uint256"
        }
      ],
      "payable": false,
      "stateMutability": "view",
      "type": "function"
    },
    {
      "constant": true,
      "inputs": [],
      "name": "getTradeAccountCount",
      "outputs": [
        {
          "name": "",
          "type": "uint256"
        }
      ],
      "payable": false,
      "stateMutability": "view",
      "type": "function"
    },
    {
      "constant": true,
      "inputs": [
        {
          "name": "AccountID",
          "type": "uint256"
        }
      ],
      "name": "getBalance",
      "outputs": [
        {
          "name": "Amount",
          "type": "uint256"
        }
      ],
      "payable": false,
      "stateMutability": "view",
      "type": "function"
    },
    {
      "constant": false,
      "inputs": [
        {
          "name": "TradeId1",
          "type": "uint256"
        },
        {
          "name": "TradeId2",
          "type": "uint256"
        }
      ],
      "name": "ClearTradebyIds",
      "outputs": [
        {
          "name": "",
          "type": "bool"
        }
      ],
      "payable": true,
      "stateMutability": "payable",
      "type": "function"
    }
  ],
  "bytecode": "0x60806040526000609155600060925534801561001a57600080fd5b50610af88061002a6000396000f3006080604052600436106100af576000357c0100000000000000000000000000000000000000000000000000000000900463ffffffff16806303057c99146100b457806318385f48146101145780631e010439146101e45780631ef35e2f146102255780632db25e051461025057806342c9e82014610319578063624a7a241461035b578063629a5d90146104005780638a3c44a51461042b578063905b682a14610442578063a3031b771461048a575b600080fd5b6100fa60048036038101908080359060200190929190803590602001909291908035906020019092919080359060200190929190803590602001909291905050506104b5565b604051808215151515815260200191505060405180910390f35b34801561012057600080fd5b5061013f60048036038101908080359060200190929190505050610606565b6040518088815260200187815260200186815260200185815260200184815260200180602001838152602001828103825284818151815260200191508051906020019080838360005b838110156101a3578082015181840152602081019050610188565b50505050905090810190601f1680156101d05780820380516001836020036101000a031916815260200191505b509850505050505050505060405180910390f35b3480156101f057600080fd5b5061020f600480360381019080803590602001909291905050506106e5565b6040518082815260200191505060405180910390f35b34801561023157600080fd5b5061023a61073e565b6040518082815260200191505060405180910390f35b34801561025c57600080fd5b5061027b60048036038101908080359060200190929190505050610793565b6040518087815260200186815260200185815260200180602001848152602001838152602001828103825285818151815260200191508051906020019080838360005b838110156102d95780820151818401526020810190506102be565b50505050905090810190601f1680156103065780820380516001836020036101000a031916815260200191505b5097505050505050505060405180910390f35b6103416004803603810190808035906020019092919080359060200190929190505050610883565b604051808215151515815260200191505060405180910390f35b34801561036757600080fd5b506103ea60048036038101908080359060200190929190803590602001908201803590602001908080601f0160208091040260200160405190810160405280939291908181526020018383808284378201915050505050509192919290803590602001909291908035906020019092919080359060200190929190505050610903565b6040518082815260200191505060405180910390f35b34801561040c57600080fd5b506104156109a8565b6040518082815260200191505060405180910390f35b34801561043757600080fd5b506104406109b2565b005b34801561044e57600080fd5b5061046d600480360381019080803590602001909291905050506109f4565b604051808381526020018281526020019250505060405180910390f35b34801561049657600080fd5b5061049f610a1d565b6040518082815260200191505060405180910390f35b60008060008060006001886010811015156104cc57fe5b60070201600201541415156104e057600080fd5b60006001876010811015156104f157fe5b600702016002015414151561050557600080fd5b600092505b6092548310156105c05760718360108110151561052357fe5b600202019150888260000154141561055d5760008583600101540311151561054a57600080fd5b8482600101600082825403925050819055505b87826000015414156105b3577fffffffffffffffffffffffffffffffffffffffffffffffffffffffffffffffff905080858360010154011015156105a057600080fd5b8482600101600082825401925050819055505b828060010193505061050a565b600180886010811015156105d057fe5b6007020160020181905550600180876010811015156105eb57fe5b60070201600201819055506001935050505095945050505050565b60018160108110151561061557fe5b60070201600091509050806000015490806001015490806002015490806003015490806004015490806005018054600181600116156101000203166002900480601f0160208091040260200160405190810160405280929190818152602001828054600181600116156101000203166002900480156106d55780601f106106aa576101008083540402835291602001916106d5565b820191906000526020600020905b8154815290600101906020018083116106b857829003601f168201915b5050505050908060060154905087565b60008060008091505b6092548210156107325760718260108110151561070757fe5b60020201905083816000015414156107255780600101549250610737565b81806001019250506106ee565b600092505b5050919050565b600080607160925460108110151561075257fe5b600202019050609254612710018160000181905550620186a08160010181905550806000015491506092600081548092919060010191905055508191505090565b6000806000606060008060006001886010811015156107ae57fe5b6007020190508060000154816002015482600301548360050184600601548560010154828054600181600116156101000203166002900480601f0160208091040260200160405190810160405280929190818152602001828054600181600116156101000203166002900480156108665780601f1061083b57610100808354040283529160200191610866565b820191906000526020600020905b81548152906001019060200180831161084957829003601f168201915b505050505092509650965096509650965096505091939550919395565b600080600060018560108110151561089757fe5b6007020191506001846010811015156108ac57fe5b6007020190506001826001015414156108df576108d882600601548260060154878786600301546104b5565b92506108fb565b6108f881600601548360060154868886600301546104b5565b92505b505092915050565b6000806010609154101561099957600160915460108110151561092257fe5b600702019050868160060181905550609154816000018190555085816005019080519060200190610954929190610a27565b5084816004018190555082816001018190555060008160020181905550838160030181905550609154915060916000815480929190600101919050555081915061099e565b600080fd5b5095945050505050565b6000609254905090565b336000806101000a81548173ffffffffffffffffffffffffffffffffffffffff021916908373ffffffffffffffffffffffffffffffffffffffff160217905550565b607181601081101515610a0357fe5b600202016000915090508060000154908060010154905082565b6000609154905090565b828054600181600116156101000203166002900490600052602060002090601f016020900481019282601f10610a6857805160ff1916838001178555610a96565b82800160010185558215610a96579182015b82811115610a95578251825591602001919060010190610a7a565b5b509050610aa39190610aa7565b5090565b610ac991905b80821115610ac5576000816000905550600101610aad565b5090565b905600a165627a7a72305820585770be11e0c055308ac04b562842134f23532dbaccf07b677192fbbd19589b0029",
  "source": "pragma solidity ^0.4.17;\r\nimport \"./TradingAccount.sol\";\r\n\r\n\r\n/*Clearing firm clears the trade between the buyer and seller accounts.  Simple clearing firm functionality is taken for demonstration\r\nHandling margin and other functions are out of scope.\r\n*/\r\ncontract ClearingFirm\r\n{\r\n  \r\naddress owner;\r\n\r\n  /* Trades are already happened. matching and clearing is done by this contract. Trade struct represents trade attributes */\r\n\r\n//Trade details\r\nstruct Trade\r\n{\r\nuint tradeId;\r\nuint orderType;\r\nuint status;\r\nuint amount;\r\nuint noofstocks;\r\nstring stockname;\r\nuint AccountNumber;\r\n}\r\n\r\n// Trade account -account number and balance \r\nstruct TradeAccount\r\n{\r\nuint accountNumber;\r\nuint balance; \r\n}\r\n\r\n\r\n//at a time 16 trades can be cleared.\r\nTrade[16] public Trades;\r\n\r\n//small set of trading accounts\r\nTradeAccount[16] public TradeAccounts;\r\n\r\nuint nextTradeId=0;\r\nuint nextTradeAccountId=0;\r\n\r\n//Clearing firm creator is the only can execute deposit and withdraw from trading accounts\r\nfunction Constructor () public {\r\n    owner = msg.sender;\r\n  }\r\n\r\n\r\n\r\n// Create TradeAccounts\r\n/* function setTradeAccounts() public returns (uint AccountId)\r\n{\r\n TradeAccount  storage _tradeAccount = TradeAccounts[nextTradeAccountId];\r\n  AccountId =nextTradeAccountId+10000;\r\n //set the initial deposit amount as 100,000 dollars\r\n _tradeAccount.balance = 100000; \r\n _tradeAccount.accountNumber=AccountId;\r\n nextTradeAccountId ++;\r\n return AccountId;\r\n} */\r\n// Create TradeAccounts\r\nfunction setTradeAccounts() public returns (uint AccountId)\r\n{\r\n\r\n TradeAccount  storage _tradeAccount = TradeAccounts[nextTradeAccountId];\r\n _tradeAccount.accountNumber = 10000 + nextTradeAccountId;\r\n //set the initial deposit amount as 100,000 dollars\r\n _tradeAccount.balance = 100000; \r\n AccountId = _tradeAccount.accountNumber;\r\n nextTradeAccountId ++;\r\n return AccountId;\r\n}\r\n\r\n/* add trades to clear, brokerage firms add these trades to clearing buckets. */\r\nfunction addTradestoClear(uint _AccountNmber,string _StockName, uint _NoofStocks,uint _Amount, uint _OrderType) \r\n        public returns (uint Id)\r\n{\r\n\r\n  if (nextTradeId <16)\r\n  {\r\n Trade storage _trade = Trades[nextTradeId];\r\n _trade.AccountNumber=_AccountNmber;\r\n_trade.tradeId=nextTradeId;\r\n_trade.stockname=_StockName;\r\n_trade.noofstocks=_NoofStocks;\r\n_trade.orderType=_OrderType;\r\n_trade.status=0 ;\r\n_trade.amount= _Amount; \r\n Id = nextTradeId;\r\n nextTradeId ++;\r\n return Id;\r\n  }\r\n  else\r\n  {\r\n    revert();\r\n  }\r\n}\r\n      \r\n//Clear trade. change the status of the trade. deposit/withdraw from the buyer and seller account\r\nfunction ClearTrade(uint buyerAccountId, uint sellerAccountId, uint buytradeId,uint selltradeId, uint Amount) public payable returns(bool) \r\n{\r\n\r\n//require(msg.sender==owner);\r\n\r\n//The stocks status has to be active not cleared or cancelled.\r\nrequire(Trades[buytradeId].status == 0);\r\nrequire(Trades[selltradeId].status == 0);\r\n\r\nfor(uint i=0; i<nextTradeAccountId; i++)\r\n{\r\n TradeAccount  storage _tradeAccount = TradeAccounts[i];\r\n\r\n\r\nif (_tradeAccount.accountNumber==buyerAccountId)\r\n{\r\n//Call withdraw\r\n require (_tradeAccount.balance-Amount >0);\r\n\r\n_tradeAccount.balance-= Amount;\r\n}\r\nif (_tradeAccount.accountNumber==sellerAccountId)\r\n{\r\n//Call deposit\r\n\r\n //check for overflow\r\n uint max = 2**256-1;\r\n require (_tradeAccount.balance+Amount < max);\r\n_tradeAccount.balance+=Amount;\r\n}\r\n}\r\n\r\nTrades[buytradeId].status = 1;\r\nTrades[selltradeId].status = 1;\r\n\r\nreturn true;\r\n}\r\n\r\n\r\n//get all Trade fields\r\n  function getTrade(uint id) public view returns\r\n   (uint,uint,uint,string,uint,uint)\r\n   {\r\n\r\n   Trade storage t = Trades[id];\r\n   return (t.tradeId, t.status, t.amount,t.stockname,t.AccountNumber,t.orderType);\r\n  }\r\n\r\n //Get the trade counts to traverse in GUI\r\n  function getTradeCount() public view returns(uint){\r\n\r\n   return nextTradeId;\r\n\r\n  }\r\n\r\n\r\n\r\n  function getTradeAccountCount() public view returns(uint) {\r\n\r\n   return nextTradeAccountId;\r\n\r\n  }\r\n//Get the balance of the tradeaccounts by accountID\r\n\r\n   function  getBalance(uint AccountID) public view returns(uint Amount)\r\n    {\r\n        \r\n        for(uint i=0; i<nextTradeAccountId; i++)\r\n        {\r\n        TradeAccount  storage _tradeAccount = TradeAccounts[i];\r\n\r\n        if (_tradeAccount.accountNumber==AccountID)\r\n        {\r\n          return _tradeAccount.balance;\r\n\r\n        }\r\n        }\r\n        return 0;\r\n        }\r\n   \r\n\r\n\r\n//Clear the trade by only tradeids. getting other details using the id.\r\nfunction ClearTradebyIds (uint TradeId1, uint TradeId2) public payable returns (bool)\r\n{\r\n\r\n Trade storage t1 = Trades[TradeId1];\r\n Trade storage t2 = Trades[TradeId2];\r\n\r\n if (t1.orderType==1)\r\n{\r\n\r\nreturn ClearTrade(t1.AccountNumber, t2.AccountNumber, TradeId1, TradeId2, t1.amount);\r\n}\r\nelse\r\n{\r\n  return ClearTrade(t2.AccountNumber, t1.AccountNumber, TradeId2, TradeId1, t1.amount);\r\n}\r\n\r\n}\r\n\r\n/* embedding the trading account within this contract. had trouble executing the contract address. future expansion \r\n\r\nfunction ClearTradewithAccounts(address buyer, address seller, uint buytradeId,uint selltradeId, uint Amount) public payable returns(bool) \r\n{\r\n\r\nrequire(msg.sender==owner);\r\n//\r\nTradingAccount a = TradingAccount(buyer);\r\nTradingAccount b = TradingAccount(seller);\r\n\r\n\r\nTrades[buytradeId].status = 1;\r\nTrades[selltradeId].status = 1;\r\n\r\nb.withdraw(Amount);\r\na.deposit(Amount); \r\n\r\nreturn true;\r\n\r\n}\r\n\r\n function  getTrdAccountBalance(address trdAccount) public view returns(uint Amount)\r\n{\r\n\r\nTradingAccount a = TradingAccount(trdAccount);\r\n\r\nreturn a.getBalance();\r\n\r\n\r\n}\r\n\r\n// Create TradeAccounts\r\nfunction setTradeAccount(uint TradeAccountId) public returns (address)\r\n{\r\nTradingAccount trdAccount = new TradingAccount();\r\ntrdAccount.setBrokerageID(TradeAccountId);\r\ntrdAccounts.push(trdAccount);\r\nreturn trdAccount;\r\n}\r\n*/\r\n\r\n}\r\n",
  "sourcePath": "C:\\vasanthi\\ClearingFirm\\contracts\\ClearingFirm.sol",
  "compiler": {
    "name": "solc",
    "version": "0.4.24+commit.e67f0147.Emscripten.clang"
  },
  "schemaVersion": "2.0.1",
  "updatedAt": "2018-08-27T03:48:59.066Z"
}