{
  "contractName": "ClearingFirm",
  "abi": [
    {
      "constant": true,
      "inputs": [
        {
          "name": "",
          "type": "uint256"
        }
      ],
      "name": "Trades",
      "outputs": [
        {
          "name": "tradeId",
          "type": "uint256"
        },
        {
          "name": "orderType",
          "type": "uint256"
        },
        {
          "name": "status",
          "type": "uint256"
        },
        {
          "name": "amount",
          "type": "uint256"
        },
        {
          "name": "noofstocks",
          "type": "uint256"
        },
        {
          "name": "stockname",
          "type": "string"
        }
      ],
      "payable": false,
      "stateMutability": "view",
      "type": "function"
    },
    {
      "constant": true,
      "inputs": [
        {
          "name": "",
          "type": "uint256"
        }
      ],
      "name": "TradeAccounts",
      "outputs": [
        {
          "name": "accountNumber",
          "type": "uint256"
        },
        {
          "name": "balance",
          "type": "uint256"
        }
      ],
      "payable": false,
      "stateMutability": "view",
      "type": "function"
    },
    {
      "constant": false,
      "inputs": [],
      "name": "setTradeAccounts",
      "outputs": [
        {
          "name": "AccountId",
          "type": "uint256"
        }
      ],
      "payable": false,
      "stateMutability": "nonpayable",
      "type": "function"
    },
    {
      "constant": false,
      "inputs": [
        {
          "name": "_AccountNmber",
          "type": "uint256"
        },
        {
          "name": "_StockName",
          "type": "string"
        },
        {
          "name": "_NoofStocks",
          "type": "uint256"
        },
        {
          "name": "_Amount",
          "type": "uint256"
        },
        {
          "name": "_OrderType",
          "type": "uint256"
        }
      ],
      "name": "addTradestoClear",
      "outputs": [
        {
          "name": "Id",
          "type": "uint256"
        }
      ],
      "payable": false,
      "stateMutability": "nonpayable",
      "type": "function"
    },
    {
      "constant": false,
      "inputs": [
        {
          "name": "buyerAccountId",
          "type": "uint256"
        },
        {
          "name": "sellerAccountId",
          "type": "uint256"
        },
        {
          "name": "buytradeId",
          "type": "uint8"
        },
        {
          "name": "selltradeId",
          "type": "uint8"
        },
        {
          "name": "Amount",
          "type": "uint256"
        }
      ],
      "name": "ClearTrade",
      "outputs": [
        {
          "name": "",
          "type": "bool"
        }
      ],
      "payable": true,
      "stateMutability": "payable",
      "type": "function"
    },
    {
      "constant": true,
      "inputs": [
        {
          "name": "id",
          "type": "uint256"
        }
      ],
      "name": "getTrade",
      "outputs": [
        {
          "name": "",
          "type": "uint256"
        },
        {
          "name": "",
          "type": "uint256"
        },
        {
          "name": "",
          "type": "uint256"
        }
      ],
      "payable": false,
      "stateMutability": "view",
      "type": "function"
    },
    {
      "constant": true,
      "inputs": [],
      "name": "getTradeCount",
      "outputs": [
        {
          "name": "",
          "type": "uint256"
        }
      ],
      "payable": false,
      "stateMutability": "view",
      "type": "function"
    }
  ],
  "bytecode": "0x608060405260006069556000606a5534801561001a57600080fd5b506106718061002a6000396000f300608060405260043610610083576000357c0100000000000000000000000000000000000000000000000000000000900463ffffffff16806318385f48146100885780631ef35e2f146101515780632db25e051461017c578063624a7a24146101cb578063905b682a14610270578063a3031b77146102b8578063a7283a59146102e3575b600080fd5b34801561009457600080fd5b506100b360048036038101908080359060200190929190505050610349565b6040518087815260200186815260200185815260200184815260200183815260200180602001828103825283818151815260200191508051906020019080838360005b838110156101115780820151818401526020810190506100f6565b50505050905090810190601f16801561013e5780820380516001836020036101000a031916815260200191505b5097505050505050505060405180910390f35b34801561015d57600080fd5b50610166610422565b6040518082815260200191505060405180910390f35b34801561018857600080fd5b506101a760048036038101908080359060200190929190505050610463565b60405180848152602001838152602001828152602001935050505060405180910390f35b3480156101d757600080fd5b5061025a60048036038101908080359060200190929190803590602001908201803590602001908080601f016020809104026020016040519081016040528093929190818152602001838380828437820191505050505050919291929080359060200190929190803590602001909291908035906020019092919050505061049b565b6040518082815260200191505060405180910390f35b34801561027c57600080fd5b5061029b60048036038101908080359060200190929190505050610522565b604051808381526020018281526020019250505060405180910390f35b3480156102c457600080fd5b506102cd61054b565b6040518082815260200191505060405180910390f35b61032f6004803603810190808035906020019092919080359060200190929190803560ff169060200190929190803560ff16906020019092919080359060200190929190505050610555565b604051808215151515815260200191505060405180910390f35b60018160108110151561035857fe5b60060201600091509050806000015490806001015490806002015490806003015490806004015490806005018054600181600116156101000203166002900480601f0160208091040260200160405190810160405280929190818152602001828054600181600116156101000203166002900480156104185780601f106103ed57610100808354040283529160200191610418565b820191906000526020600020905b8154815290600101906020018083116103fb57829003601f168201915b5050505050905086565b6000806061606a5460048110151561043657fe5b600202019050606a5461271001816000018190555060008160010181905550806000015491508191505090565b60008060008060018560108110151561047857fe5b600602019050806000015481600201548260030154935093509350509193909250565b60008060016069546010811015156104af57fe5b6006020190506069548160000181905550858160050190805190602001906104d89291906105a0565b508481600401819055508281600101819055506000816002018190555083816003018190555060695491506069600081548092919060010191905055508191505095945050505050565b60618160048110151561053157fe5b600202016000915090508060000154908060010154905082565b6000606954905090565b60006001808560ff1660108110151561056a57fe5b60060201600201819055506001808460ff1660108110151561058857fe5b60060201600201819055506001905095945050505050565b828054600181600116156101000203166002900490600052602060002090601f016020900481019282601f106105e157805160ff191683800117855561060f565b8280016001018555821561060f579182015b8281111561060e5782518255916020019190600101906105f3565b5b50905061061c9190610620565b5090565b61064291905b8082111561063e576000816000905550600101610626565b5090565b905600a165627a7a7230582056da1bb4d56245b05e7a852cdd30af630866c983affd61c9de3e11b5bb2fd5730029",
  "source": "pragma solidity ^0.4.17;\r\n\r\n\r\n\r\n/*Clearing firm clears the trade between the buyer and seller accounts.  Simple clearing firm functionality is taken for demonstration\r\nHandling margin and other functions are out of scope.\r\n*/\r\ncontract ClearingFirm\r\n{\r\n  \r\naddress owner;\r\n\r\n  /* Trades are already happened. matching and clearing is done by this contract */\r\nstruct Trade\r\n{\r\nuint tradeId;\r\nuint orderType;\r\nuint status;\r\nuint amount;\r\nuint noofstocks;\r\nstring stockname;\r\n}\r\n\r\nstruct TradeAccount\r\n{\r\nuint accountNumber;\r\nuint balance; \r\n}\r\n\r\n\r\nTrade[16] public Trades;\r\n\r\nTradeAccount[4] public TradeAccounts;\r\n\r\nuint nextTradeId=0;\r\nuint nextTradeAccountId =0;\r\n\r\n//Clearing firm creator is the only can execute deposit and withdraw from trading accounts\r\n/*function Constructor () public {\r\n    owner = msg.sender;\r\n  }*/\r\n\r\n\r\nfunction setTradeAccounts() public returns (uint AccountId)\r\n\r\n{\r\n TradeAccount  storage _tradeAccount = TradeAccounts[nextTradeAccountId];\r\n _tradeAccount.accountNumber = 10000 + nextTradeAccountId;\r\n _tradeAccount.balance = 0; \r\n AccountId=_tradeAccount.accountNumber;\r\n return AccountId;\r\n}\r\n\r\n\r\n/* add trades to clear, brokerage firms add these trades to clearing buckets. */\r\nfunction addTradestoClear(uint _AccountNmber,string _StockName, uint _NoofStocks,uint _Amount, uint _OrderType) \r\n        public returns (uint Id)\r\n{\r\n Trade storage _trade = Trades[nextTradeId];\r\n_trade.tradeId=nextTradeId;\r\n_trade.stockname=_StockName;\r\n_trade.noofstocks=_NoofStocks;\r\n_trade.orderType=_OrderType;\r\n_trade.status=0 ;\r\n_trade.amount= _Amount; \r\n Id = nextTradeId;\r\n nextTradeId ++;\r\n return Id;\r\n\r\n}\r\n      \r\n\r\nfunction ClearTrade(uint buyerAccountId, uint sellerAccountId, uint8 buytradeId,uint8 selltradeId, uint Amount) public payable returns(bool) \r\n{\r\n\r\n\r\nTrades[buytradeId].status = 1;\r\nTrades[selltradeId].status = 1;\r\n\r\n//b.withdraw(Amount);\r\n//a.deposit(Amount); \r\n\r\nreturn true;\r\n\r\n}\r\n\r\n\r\n//get all Trade fields\r\n  function getTrade(uint id) public constant returns (uint,uint,uint){\r\n\r\n   Trade storage t = Trades[id];\r\n\r\n    return (t.tradeId, t.status, t.amount);\r\n  }\r\n\r\n //Get the trade counts to traverse in GUI\r\n  function getTradeCount() public view returns(uint){\r\n\r\n   return nextTradeId;\r\n\r\n  }\r\n\r\n}\r\n",
  "sourcePath": "C:\\ClearingFirm\\contracts\\ClearingFirm.sol",
  "compiler": {
    "name": "solc",
    "version": "0.4.24+commit.e67f0147.Emscripten.clang"
  },
  "schemaVersion": "2.0.1",
  "updatedAt": "2018-08-14T15:30:38.468Z"
}