{
  "contractName": "ClearingFirm",
  "abi": [
    {
      "constant": true,
      "inputs": [
        {
          "name": "",
          "type": "uint256"
        }
      ],
      "name": "Trades",
      "outputs": [
        {
          "name": "tradeId",
          "type": "uint256"
        },
        {
          "name": "orderType",
          "type": "uint256"
        },
        {
          "name": "status",
          "type": "uint256"
        },
        {
          "name": "amount",
          "type": "uint256"
        },
        {
          "name": "noofstocks",
          "type": "uint256"
        },
        {
          "name": "stockname",
          "type": "string"
        },
        {
          "name": "AccountNumber",
          "type": "uint256"
        }
      ],
      "payable": false,
      "stateMutability": "view",
      "type": "function"
    },
    {
      "constant": true,
      "inputs": [
        {
          "name": "",
          "type": "uint256"
        }
      ],
      "name": "TradeAccounts",
      "outputs": [
        {
          "name": "accountNumber",
          "type": "uint256"
        },
        {
          "name": "balance",
          "type": "uint256"
        }
      ],
      "payable": false,
      "stateMutability": "view",
      "type": "function"
    },
    {
      "constant": false,
      "inputs": [],
      "name": "setTradeAccounts",
      "outputs": [
        {
          "name": "AccountId",
          "type": "uint256"
        }
      ],
      "payable": false,
      "stateMutability": "nonpayable",
      "type": "function"
    },
    {
      "constant": false,
      "inputs": [
        {
          "name": "_AccountNmber",
          "type": "uint256"
        },
        {
          "name": "_StockName",
          "type": "string"
        },
        {
          "name": "_NoofStocks",
          "type": "uint256"
        },
        {
          "name": "_Amount",
          "type": "uint256"
        },
        {
          "name": "_OrderType",
          "type": "uint256"
        }
      ],
      "name": "addTradestoClear",
      "outputs": [
        {
          "name": "Id",
          "type": "uint256"
        }
      ],
      "payable": false,
      "stateMutability": "nonpayable",
      "type": "function"
    },
    {
      "constant": false,
      "inputs": [
        {
          "name": "buyerAccountId",
          "type": "uint256"
        },
        {
          "name": "sellerAccountId",
          "type": "uint256"
        },
        {
          "name": "buytradeId",
          "type": "uint256"
        },
        {
          "name": "selltradeId",
          "type": "uint256"
        },
        {
          "name": "Amount",
          "type": "uint256"
        }
      ],
      "name": "ClearTrade",
      "outputs": [
        {
          "name": "",
          "type": "bool"
        }
      ],
      "payable": true,
      "stateMutability": "payable",
      "type": "function"
    },
    {
      "constant": true,
      "inputs": [
        {
          "name": "id",
          "type": "uint256"
        }
      ],
      "name": "getTrade",
      "outputs": [
        {
          "name": "",
          "type": "uint256"
        },
        {
          "name": "",
          "type": "uint256"
        },
        {
          "name": "",
          "type": "uint256"
        },
        {
          "name": "",
          "type": "string"
        }
      ],
      "payable": false,
      "stateMutability": "view",
      "type": "function"
    },
    {
      "constant": true,
      "inputs": [],
      "name": "getTradeCount",
      "outputs": [
        {
          "name": "",
          "type": "uint256"
        }
      ],
      "payable": false,
      "stateMutability": "view",
      "type": "function"
    },
    {
      "constant": true,
      "inputs": [
        {
          "name": "AccountID",
          "type": "uint256"
        }
      ],
      "name": "getBalance",
      "outputs": [
        {
          "name": "Amount",
          "type": "uint256"
        }
      ],
      "payable": false,
      "stateMutability": "view",
      "type": "function"
    }
  ],
  "bytecode": "0x608060405260006079556000607a5534801561001a57600080fd5b506108c18061002a6000396000f30060806040526004361061008e576000357c0100000000000000000000000000000000000000000000000000000000900463ffffffff16806303057c991461009357806318385f48146100f35780631e010439146101c35780631ef35e2f146102045780632db25e051461022f578063624a7a24146102ea578063905b682a1461038f578063a3031b77146103d7575b600080fd5b6100d96004803603810190808035906020019092919080359060200190929190803590602001909291908035906020019092919080359060200190929190505050610402565b604051808215151515815260200191505060405180910390f35b3480156100ff57600080fd5b5061011e600480360381019080803590602001909291905050506104c1565b6040518088815260200187815260200186815260200185815260200184815260200180602001838152602001828103825284818151815260200191508051906020019080838360005b83811015610182578082015181840152602081019050610167565b50505050905090810190601f1680156101af5780820380516001836020036101000a031916815260200191505b509850505050505050505060405180910390f35b3480156101cf57600080fd5b506101ee600480360381019080803590602001909291905050506105a0565b6040518082815260200191505060405180910390f35b34801561021057600080fd5b506102196105fb565b6040518082815260200191505060405180910390f35b34801561023b57600080fd5b5061025a60048036038101908080359060200190929190505050610650565b6040518085815260200184815260200183815260200180602001828103825283818151815260200191508051906020019080838360005b838110156102ac578082015181840152602081019050610291565b50505050905090810190601f1680156102d95780820380516001836020036101000a031916815260200191505b509550505050505060405180910390f35b3480156102f657600080fd5b5061037960048036038101908080359060200190929190803590602001908201803590602001908080601f016020809104026020016040519081016040528093929190818152602001838380828437820191505050505050919291929080359060200190929190803590602001909291908035906020019092919050505061072d565b6040518082815260200191505060405180910390f35b34801561039b57600080fd5b506103ba600480360381019080803590602001909291905050506107bd565b604051808381526020018281526020019250505060405180910390f35b3480156103e357600080fd5b506103ec6107e6565b6040518082815260200191505060405180910390f35b60008060006001808760108110151561041757fe5b60070201600201819055506001808660108110151561043257fe5b6007020160020181905550600091505b607a548260ff1610156104b25760718260ff1660048110151561046157fe5b6002020190508781600001541415610486578381600101600082825403925050819055505b86816000015414156104a5578381600101600082825401925050819055505b8180600101925050610442565b60019250505095945050505050565b6001816010811015156104d057fe5b60070201600091509050806000015490806001015490806002015490806003015490806004015490806005018054600181600116156101000203166002900480601f0160208091040260200160405190810160405280929190818152602001828054600181600116156101000203166002900480156105905780601f1061056557610100808354040283529160200191610590565b820191906000526020600020905b81548152906001019060200180831161057357829003601f168201915b5050505050908060060154905087565b60008060008091505b607a548260ff1610156105f35760718260ff166004811015156105c857fe5b60020201905083816000015414156105e657806001015492506105f4565b81806001019250506105a9565b5b5050919050565b6000806071607a5460048110151561060f57fe5b600202019050607a54612710018160000181905550620186a0816001018190555080600001549150607a600081548092919060010191905055508191505090565b60008060006060600060018660108110151561066857fe5b60070201905080600001548160020154826003015483600501808054600181600116156101000203166002900480601f0160208091040260200160405190810160405280929190818152602001828054600181600116156101000203166002900480156107165780601f106106eb57610100808354040283529160200191610716565b820191906000526020600020905b8154815290600101906020018083116106f957829003601f168201915b505050505090509450945094509450509193509193565b600080600160795460108110151561074157fe5b6007020190508681600601819055506079548160000181905550858160050190805190602001906107739291906107f0565b508481600401819055508281600101819055506000816002018190555083816003018190555060795491506079600081548092919060010191905055508191505095945050505050565b6071816004811015156107cc57fe5b600202016000915090508060000154908060010154905082565b6000607954905090565b828054600181600116156101000203166002900490600052602060002090601f016020900481019282601f1061083157805160ff191683800117855561085f565b8280016001018555821561085f579182015b8281111561085e578251825591602001919060010190610843565b5b50905061086c9190610870565b5090565b61089291905b8082111561088e576000816000905550600101610876565b5090565b905600a165627a7a723058203909a26fdcb0b6e5ef6cabed02ff6f33176e09c1624b8e03e3aa8645ad526fd80029",
  "source": "pragma solidity ^0.4.17;\r\n\r\n\r\n\r\n/*Clearing firm clears the trade between the buyer and seller accounts.  Simple clearing firm functionality is taken for demonstration\r\nHandling margin and other functions are out of scope.\r\n*/\r\ncontract ClearingFirm\r\n{\r\n  \r\naddress owner;\r\n\r\n  /* Trades are already happened. matching and clearing is done by this contract. Trade struct represents trade attributes */\r\n\r\n\r\nstruct Trade\r\n{\r\nuint tradeId;\r\nuint orderType;\r\nuint status;\r\nuint amount;\r\nuint noofstocks;\r\nstring stockname;\r\nuint AccountNumber;\r\n}\r\n\r\n// Trade account -account number and balance\r\nstruct TradeAccount\r\n{\r\nuint accountNumber;\r\nuint balance; \r\n}\r\n\r\n\r\nTrade[16] public Trades;\r\n\r\nTradeAccount[4] public TradeAccounts;\r\n\r\nuint nextTradeId=0;\r\nuint nextTradeAccountId =0;\r\n\r\n\r\n\r\n// Create TradeAccounts\r\nfunction setTradeAccounts() public returns (uint AccountId)\r\n{\r\n TradeAccount  storage _tradeAccount = TradeAccounts[nextTradeAccountId];\r\n _tradeAccount.accountNumber = 10000 + nextTradeAccountId;\r\n //set the initial deposit amount as 100,000 dollars\r\n _tradeAccount.balance = 100000; \r\n AccountId=_tradeAccount.accountNumber;\r\n nextTradeAccountId ++;\r\n return AccountId;\r\n}\r\n\r\n\r\n/* add trades to clear, brokerage firms add these trades to clearing buckets. */\r\nfunction addTradestoClear(uint _AccountNmber,string _StockName, uint _NoofStocks,uint _Amount, uint _OrderType) \r\n        public returns (uint Id)\r\n{\r\n Trade storage _trade = Trades[nextTradeId];\r\n _trade.AccountNumber=_AccountNmber;\r\n_trade.tradeId=nextTradeId;\r\n_trade.stockname=_StockName;\r\n_trade.noofstocks=_NoofStocks;\r\n_trade.orderType=_OrderType;\r\n_trade.status=0 ;\r\n_trade.amount= _Amount; \r\n Id = nextTradeId;\r\n nextTradeId ++;\r\n return Id;\r\n\r\n}\r\n      \r\n\r\nfunction ClearTrade(uint buyerAccountId, uint sellerAccountId, uint buytradeId,uint selltradeId, uint Amount) public payable returns(bool) \r\n{\r\n\r\nTrades[buytradeId].status = 1;\r\nTrades[selltradeId].status = 1;\r\n\r\nfor(var i=0; i<nextTradeAccountId; i++)\r\n{\r\n TradeAccount  storage _tradeAccount = TradeAccounts[i];\r\n\r\nif (_tradeAccount.accountNumber==buyerAccountId)\r\n{\r\n//Call withdraw\r\n_tradeAccount.balance-= Amount;\r\n}\r\n\r\nif (_tradeAccount.accountNumber==sellerAccountId)\r\n{\r\n//Call deposit\r\n_tradeAccount.balance+=Amount;\r\n}\r\n\r\n}\r\nreturn true;\r\n}\r\n\r\n\r\n//get all Trade fields\r\n  function getTrade(uint id) public view returns (uint,uint,uint,string){\r\n\r\n   Trade storage t = Trades[id];\r\n   return (t.tradeId, t.status, t.amount,t.stockname);\r\n  }\r\n\r\n //Get the trade counts to traverse in GUI\r\n  function getTradeCount() public view returns(uint){\r\n\r\n   return nextTradeId;\r\n\r\n  }\r\n\r\n//Get the balance of the tradeaccounts by accountID\r\n\r\n   function  getBalance(uint AccountID) public view returns(uint Amount)\r\n    {\r\n        \r\n        for(var i=0; i<nextTradeAccountId; i++)\r\n        {\r\n        TradeAccount  storage _tradeAccount = TradeAccounts[i];\r\n\r\n        if (_tradeAccount.accountNumber==AccountID)\r\n        {\r\n          return _tradeAccount.balance;\r\n\r\n        }\r\n        }\r\n    }\r\n\r\n\r\n}\r\n",
  "sourcePath": "C:\\vasanthi\\ClearingFirm\\contracts\\ClearingFirm.sol",
  "compiler": {
    "name": "solc",
    "version": "0.4.24+commit.e67f0147.Emscripten.clang"
  },
  "schemaVersion": "2.0.1",
  "updatedAt": "2018-08-18T16:41:34.675Z"
}