{
  "contractName": "ClearingFirm",
  "abi": [
    {
      "constant": true,
      "inputs": [
        {
          "name": "",
          "type": "uint256"
        }
      ],
      "name": "Trades",
      "outputs": [
        {
          "name": "tradeId",
          "type": "uint256"
        },
        {
          "name": "orderType",
          "type": "uint256"
        },
        {
          "name": "status",
          "type": "uint256"
        },
        {
          "name": "amount",
          "type": "uint256"
        },
        {
          "name": "noofstocks",
          "type": "uint256"
        },
        {
          "name": "stockname",
          "type": "string"
        },
        {
          "name": "AccountNumber",
          "type": "uint256"
        }
      ],
      "payable": false,
      "stateMutability": "view",
      "type": "function"
    },
    {
      "constant": true,
      "inputs": [
        {
          "name": "",
          "type": "uint256"
        }
      ],
      "name": "TradeAccounts",
      "outputs": [
        {
          "name": "accountNumber",
          "type": "uint256"
        },
        {
          "name": "balance",
          "type": "uint256"
        }
      ],
      "payable": false,
      "stateMutability": "view",
      "type": "function"
    },
    {
      "constant": false,
      "inputs": [],
      "name": "Constructor",
      "outputs": [],
      "payable": false,
      "stateMutability": "nonpayable",
      "type": "function"
    },
    {
      "constant": false,
      "inputs": [],
      "name": "setTradeAccounts",
      "outputs": [
        {
          "name": "AccountId",
          "type": "uint256"
        }
      ],
      "payable": false,
      "stateMutability": "nonpayable",
      "type": "function"
    },
    {
      "constant": false,
      "inputs": [
        {
          "name": "_AccountNmber",
          "type": "uint256"
        },
        {
          "name": "_StockName",
          "type": "string"
        },
        {
          "name": "_NoofStocks",
          "type": "uint256"
        },
        {
          "name": "_Amount",
          "type": "uint256"
        },
        {
          "name": "_OrderType",
          "type": "uint256"
        }
      ],
      "name": "addTradestoClear",
      "outputs": [
        {
          "name": "Id",
          "type": "uint256"
        }
      ],
      "payable": false,
      "stateMutability": "nonpayable",
      "type": "function"
    },
    {
      "constant": false,
      "inputs": [
        {
          "name": "buyerAccountId",
          "type": "uint256"
        },
        {
          "name": "sellerAccountId",
          "type": "uint256"
        },
        {
          "name": "buytradeId",
          "type": "uint256"
        },
        {
          "name": "selltradeId",
          "type": "uint256"
        },
        {
          "name": "Amount",
          "type": "uint256"
        }
      ],
      "name": "ClearTrade",
      "outputs": [
        {
          "name": "",
          "type": "bool"
        }
      ],
      "payable": true,
      "stateMutability": "payable",
      "type": "function"
    },
    {
      "constant": true,
      "inputs": [
        {
          "name": "id",
          "type": "uint256"
        }
      ],
      "name": "getTrade",
      "outputs": [
        {
          "name": "",
          "type": "uint256"
        },
        {
          "name": "",
          "type": "uint256"
        },
        {
          "name": "",
          "type": "uint256"
        },
        {
          "name": "",
          "type": "string"
        }
      ],
      "payable": false,
      "stateMutability": "view",
      "type": "function"
    },
    {
      "constant": true,
      "inputs": [],
      "name": "getTradeCount",
      "outputs": [
        {
          "name": "",
          "type": "uint256"
        }
      ],
      "payable": false,
      "stateMutability": "view",
      "type": "function"
    },
    {
      "constant": true,
      "inputs": [
        {
          "name": "AccountID",
          "type": "uint256"
        }
      ],
      "name": "getBalance",
      "outputs": [
        {
          "name": "Amount",
          "type": "uint256"
        }
      ],
      "payable": false,
      "stateMutability": "view",
      "type": "function"
    }
  ],
  "bytecode": "0x608060405260006079556000607a5534801561001a57600080fd5b506109c68061002a6000396000f300608060405260043610610099576000357c0100000000000000000000000000000000000000000000000000000000900463ffffffff16806303057c991461009e57806318385f48146100fe5780631e010439146101ce5780631ef35e2f1461020f5780632db25e051461023a578063624a7a24146102f55780638a3c44a51461039a578063905b682a146103b1578063a3031b77146103f9575b600080fd5b6100e46004803603810190808035906020019092919080359060200190929190803590602001909291908035906020019092919080359060200190929190505050610424565b604051808215151515815260200191505060405180910390f35b34801561010a57600080fd5b5061012960048036038101908080359060200190929190505050610575565b6040518088815260200187815260200186815260200185815260200184815260200180602001838152602001828103825284818151815260200191508051906020019080838360005b8381101561018d578082015181840152602081019050610172565b50505050905090810190601f1680156101ba5780820380516001836020036101000a031916815260200191505b509850505050505050505060405180910390f35b3480156101da57600080fd5b506101f960048036038101908080359060200190929190505050610654565b6040518082815260200191505060405180910390f35b34801561021b57600080fd5b506102246106a9565b6040518082815260200191505060405180910390f35b34801561024657600080fd5b50610265600480360381019080803590602001909291905050506106fe565b6040518085815260200184815260200183815260200180602001828103825283818151815260200191508051906020019080838360005b838110156102b757808201518184015260208101905061029c565b50505050905090810190601f1680156102e45780820380516001836020036101000a031916815260200191505b509550505050505060405180910390f35b34801561030157600080fd5b5061038460048036038101908080359060200190929190803590602001908201803590602001908080601f01602080910402602001604051908101604052809392919081815260200183838082843782019150505050505091929192908035906020019092919080359060200190929190803590602001909291905050506107db565b6040518082815260200191505060405180910390f35b3480156103a657600080fd5b506103af610880565b005b3480156103bd57600080fd5b506103dc600480360381019080803590602001909291905050506108c2565b604051808381526020018281526020019250505060405180910390f35b34801561040557600080fd5b5061040e6108eb565b6040518082815260200191505060405180910390f35b600080600080600060018860108110151561043b57fe5b600702016002015414151561044f57600080fd5b600060018760108110151561046057fe5b600702016002015414151561047457600080fd5b600092505b607a5483101561052f5760718360048110151561049257fe5b60020201915088826000015414156104cc576000858360010154031115156104b957600080fd5b8482600101600082825403925050819055505b8782600001541415610522577fffffffffffffffffffffffffffffffffffffffffffffffffffffffffffffffff9050808583600101540110151561050f57600080fd5b8482600101600082825401925050819055505b8280600101935050610479565b6001808860108110151561053f57fe5b60070201600201819055506001808760108110151561055a57fe5b60070201600201819055506001935050505095945050505050565b60018160108110151561058457fe5b60070201600091509050806000015490806001015490806002015490806003015490806004015490806005018054600181600116156101000203166002900480601f0160208091040260200160405190810160405280929190818152602001828054600181600116156101000203166002900480156106445780601f1061061957610100808354040283529160200191610644565b820191906000526020600020905b81548152906001019060200180831161062757829003601f168201915b5050505050908060060154905087565b60008060008091505b607a548210156106a15760718260048110151561067657fe5b600202019050838160000154141561069457806001015492506106a2565b818060010192505061065d565b5b5050919050565b6000806071607a546004811015156106bd57fe5b600202019050607a54612710018160000181905550620186a0816001018190555080600001549150607a600081548092919060010191905055508191505090565b60008060006060600060018660108110151561071657fe5b60070201905080600001548160020154826003015483600501808054600181600116156101000203166002900480601f0160208091040260200160405190810160405280929190818152602001828054600181600116156101000203166002900480156107c45780601f10610799576101008083540402835291602001916107c4565b820191906000526020600020905b8154815290600101906020018083116107a757829003601f168201915b505050505090509450945094509450509193509193565b600080601060795410156108715760016079546010811015156107fa57fe5b60070201905086816006018190555060795481600001819055508581600501908051906020019061082c9291906108f5565b50848160040181905550828160010181905550600081600201819055508381600301819055506079549150607960008154809291906001019190505550819150610876565b600080fd5b5095945050505050565b336000806101000a81548173ffffffffffffffffffffffffffffffffffffffff021916908373ffffffffffffffffffffffffffffffffffffffff160217905550565b6071816004811015156108d157fe5b600202016000915090508060000154908060010154905082565b6000607954905090565b828054600181600116156101000203166002900490600052602060002090601f016020900481019282601f1061093657805160ff1916838001178555610964565b82800160010185558215610964579182015b82811115610963578251825591602001919060010190610948565b5b5090506109719190610975565b5090565b61099791905b8082111561099357600081600090555060010161097b565b5090565b905600a165627a7a72305820a1d750b4771b0b8585c567fdadc985988ad1133f0577650fd273a42134e175590029",
  "source": "pragma solidity ^0.4.17;\r\nimport \"./TradingAccount.sol\";\r\n\r\n\r\n/*Clearing firm clears the trade between the buyer and seller accounts.  Simple clearing firm functionality is taken for demonstration\r\nHandling margin and other functions are out of scope.\r\n*/\r\ncontract ClearingFirm\r\n{\r\n  \r\naddress owner;\r\n\r\n  /* Trades are already happened. matching and clearing is done by this contract. Trade struct represents trade attributes */\r\n\r\n//Trade details\r\nstruct Trade\r\n{\r\nuint tradeId;\r\nuint orderType;\r\nuint status;\r\nuint amount;\r\nuint noofstocks;\r\nstring stockname;\r\nuint AccountNumber;\r\n}\r\n\r\n// Trade account -account number and balance \r\nstruct TradeAccount\r\n{\r\nuint accountNumber;\r\nuint balance; \r\n}\r\n\r\n\r\n//at a time 16 trades can be cleared.\r\nTrade[16] public Trades;\r\n\r\n//small set of trading accounts\r\nTradeAccount[4] public TradeAccounts;\r\n\r\nuint nextTradeId=0;\r\nuint nextTradeAccountId =0;\r\n\r\n//Clearing firm creator is the only can execute deposit and withdraw from trading accounts\r\nfunction Constructor () public {\r\n    owner = msg.sender;\r\n  }\r\n\r\n\r\n\r\n// Create TradeAccounts\r\nfunction setTradeAccounts() public returns (uint AccountId)\r\n{\r\n\r\n\r\n TradeAccount  storage _tradeAccount = TradeAccounts[nextTradeAccountId];\r\n _tradeAccount.accountNumber = 10000 + nextTradeAccountId;\r\n //set the initial deposit amount as 100,000 dollars\r\n _tradeAccount.balance = 100000; \r\n AccountId=_tradeAccount.accountNumber;\r\n nextTradeAccountId ++;\r\n return AccountId;\r\n}\r\n\r\n/* add trades to clear, brokerage firms add these trades to clearing buckets. */\r\nfunction addTradestoClear(uint _AccountNmber,string _StockName, uint _NoofStocks,uint _Amount, uint _OrderType) \r\n        public returns (uint Id)\r\n{\r\n\r\n  if (nextTradeId <16)\r\n  {\r\n Trade storage _trade = Trades[nextTradeId];\r\n _trade.AccountNumber=_AccountNmber;\r\n_trade.tradeId=nextTradeId;\r\n_trade.stockname=_StockName;\r\n_trade.noofstocks=_NoofStocks;\r\n_trade.orderType=_OrderType;\r\n_trade.status=0 ;\r\n_trade.amount= _Amount; \r\n Id = nextTradeId;\r\n nextTradeId ++;\r\n return Id;\r\n  }\r\n  else\r\n  {\r\n    revert();\r\n  }\r\n}\r\n      \r\n//Clear trade. change the status of the trade. deposit/withdraw from the buyer and seller account\r\nfunction ClearTrade(uint buyerAccountId, uint sellerAccountId, uint buytradeId,uint selltradeId, uint Amount) public payable returns(bool) \r\n{\r\n\r\n//require(msg.sender==owner);\r\n\r\n//The stocks status has to be active not cleared or cancelled.\r\nrequire(Trades[buytradeId].status == 0);\r\nrequire(Trades[selltradeId].status == 0);\r\n\r\nfor(uint i=0; i<nextTradeAccountId; i++)\r\n{\r\n TradeAccount  storage _tradeAccount = TradeAccounts[i];\r\n\r\n\r\nif (_tradeAccount.accountNumber==buyerAccountId)\r\n{\r\n//Call withdraw\r\n require (_tradeAccount.balance-Amount >0);\r\n\r\n_tradeAccount.balance-= Amount;\r\n}\r\nif (_tradeAccount.accountNumber==sellerAccountId)\r\n{\r\n//Call deposit\r\n\r\n //check for overflow\r\n uint max = 2**256-1;\r\n require (_tradeAccount.balance+Amount < max);\r\n_tradeAccount.balance+=Amount;\r\n}\r\n}\r\n\r\nTrades[buytradeId].status = 1;\r\nTrades[selltradeId].status = 1;\r\n\r\nreturn true;\r\n}\r\n\r\n\r\n//get all Trade fields\r\n  function getTrade(uint id) public view returns (uint,uint,uint,string){\r\n\r\n   Trade storage t = Trades[id];\r\n   return (t.tradeId, t.status, t.amount,t.stockname);\r\n  }\r\n\r\n //Get the trade counts to traverse in GUI\r\n  function getTradeCount() public view returns(uint){\r\n\r\n   return nextTradeId;\r\n\r\n  }\r\n\r\n//Get the balance of the tradeaccounts by accountID\r\n\r\n   function  getBalance(uint AccountID) public view returns(uint Amount)\r\n    {\r\n        \r\n        for(uint i=0; i<nextTradeAccountId; i++)\r\n        {\r\n        TradeAccount  storage _tradeAccount = TradeAccounts[i];\r\n\r\n        if (_tradeAccount.accountNumber==AccountID)\r\n        {\r\n          return _tradeAccount.balance;\r\n\r\n        }\r\n        }\r\n    }\r\n\r\n\r\n/* embedding the trading account within this contract. had trouble executing the contract address. future expansion \r\n\r\nfunction ClearTradewithAccounts(address buyer, address seller, uint buytradeId,uint selltradeId, uint Amount) public payable returns(bool) \r\n{\r\n\r\nrequire(msg.sender==owner);\r\n//\r\nTradingAccount a = TradingAccount(buyer);\r\nTradingAccount b = TradingAccount(seller);\r\n\r\n\r\nTrades[buytradeId].status = 1;\r\nTrades[selltradeId].status = 1;\r\n\r\nb.withdraw(Amount);\r\na.deposit(Amount); \r\n\r\nreturn true;\r\n\r\n}\r\n\r\n function  getTrdAccountBalance(address trdAccount) public view returns(uint Amount)\r\n{\r\n\r\nTradingAccount a = TradingAccount(trdAccount);\r\n\r\nreturn a.getBalance();\r\n\r\n\r\n}\r\n\r\n// Create TradeAccounts\r\nfunction setTradeAccount(uint TradeAccountId) public returns (address)\r\n{\r\nTradingAccount trdAccount = new TradingAccount();\r\ntrdAccount.setBrokerageID(TradeAccountId);\r\ntrdAccounts.push(trdAccount);\r\nreturn trdAccount;\r\n}\r\n*/\r\n\r\n}\r\n",
  "sourcePath": "C:\\vasanthi\\ClearingFirm\\contracts\\ClearingFirm.sol",
  "compiler": {
    "name": "solc",
    "version": "0.4.24+commit.e67f0147.Emscripten.clang"
  },
  "schemaVersion": "2.0.1",
  "updatedAt": "2018-08-24T02:48:43.234Z"
}