{
  "contractName": "TradingAccount",
  "abi": [
    {
      "constant": true,
      "inputs": [
        {
          "name": "",
          "type": "address"
        }
      ],
      "name": "balance",
      "outputs": [
        {
          "name": "",
          "type": "uint256"
        }
      ],
      "payable": false,
      "stateMutability": "view",
      "type": "function"
    },
    {
      "constant": false,
      "inputs": [
        {
          "name": "id",
          "type": "uint256"
        }
      ],
      "name": "setBrokerageID",
      "outputs": [
        {
          "name": "",
          "type": "bool"
        }
      ],
      "payable": false,
      "stateMutability": "nonpayable",
      "type": "function"
    },
    {
      "constant": true,
      "inputs": [],
      "name": "getbalance",
      "outputs": [
        {
          "name": "amount",
          "type": "uint256"
        }
      ],
      "payable": false,
      "stateMutability": "view",
      "type": "function"
    },
    {
      "constant": false,
      "inputs": [
        {
          "name": "amount",
          "type": "uint256"
        }
      ],
      "name": "deposit",
      "outputs": [
        {
          "name": "success",
          "type": "bool"
        }
      ],
      "payable": true,
      "stateMutability": "payable",
      "type": "function"
    },
    {
      "constant": false,
      "inputs": [
        {
          "name": "amount",
          "type": "uint256"
        }
      ],
      "name": "withdraw",
      "outputs": [
        {
          "name": "success",
          "type": "bool"
        }
      ],
      "payable": true,
      "stateMutability": "payable",
      "type": "function"
    }
  ],
  "bytecode": "0x608060405234801561001057600080fd5b506103aa806100206000396000f30060806040526004361061006d576000357c0100000000000000000000000000000000000000000000000000000000900463ffffffff1680632e1a7d4d146100725780634d9b3d5d146100aa578063b6b55f25146100d5578063bbc27d6d1461010d578063e3d670d714610152575b600080fd5b610090600480360381019080803590602001909291905050506101a9565b604051808215151515815260200191505060405180910390f35b3480156100b657600080fd5b506100bf61026d565b6040518082815260200191505060405180910390f35b6100f36004803603810190808035906020019092919050505061028c565b604051808215151515815260200191505060405180910390f35b34801561011957600080fd5b5061013860048036038101908080359060200190929190505050610358565b604051808215151515815260200191505060405180910390f35b34801561015e57600080fd5b50610193600480360381019080803573ffffffffffffffffffffffffffffffffffffffff169060200190929190505050610366565b6040518082815260200191505060405180910390f35b60003373ffffffffffffffffffffffffffffffffffffffff1631821015156101d057600080fd5b81600160003373ffffffffffffffffffffffffffffffffffffffff1673ffffffffffffffffffffffffffffffffffffffff168152602001908152602001600020600082825403925050819055503373ffffffffffffffffffffffffffffffffffffffff166108fc839081150290604051600060405180830381858888f19350505050158015610263573d6000803e3d6000fd5b5060019050919050565b60003073ffffffffffffffffffffffffffffffffffffffff1631905090565b6000807fffffffffffffffffffffffffffffffffffffffffffffffffffffffffffffffff90508083600160003373ffffffffffffffffffffffffffffffffffffffff1673ffffffffffffffffffffffffffffffffffffffff168152602001908152602001600020540110151561030157600080fd5b82600160003373ffffffffffffffffffffffffffffffffffffffff1673ffffffffffffffffffffffffffffffffffffffff168152602001908152602001600020600082825401925050819055506001915050919050565b600081600081905550919050565b600160205280600052604060002060009150905054815600a165627a7a723058207072a414faca02619ac1cad2f0cfdfba37bba522f49b895cd5fc428e67cac03f0029",
  "source": "pragma solidity ^0.4.17;\r\n\r\n\r\ncontract TradingAccount\r\n{\r\n\r\n    uint BrokerageID;\r\n\r\n    function setBrokerageID( uint id) public returns(bool)\r\n    {\r\n    BrokerageID = id;\r\n    }\r\n   \r\n    mapping(address=>uint256) public balance;\r\n\r\n    function  getbalance() public view returns(uint amount)\r\n    {\r\n        return address(this).balance;\r\n    }\r\n\r\n\r\n\r\n\r\n    function deposit(uint256 amount) public payable returns(bool success) \r\n    {\r\n        uint max = 2**256-1;\r\n        require (balance[msg.sender]+amount < max);\r\n        balance[msg.sender] += amount;\r\n        return true;\r\n    }\r\n    \r\n  \r\n    function withdraw(uint amount) public payable returns(bool success)\r\n     {\r\n         \r\n        require(amount < address(msg.sender).balance);\r\n        balance[msg.sender] -= amount;\r\n        msg.sender.transfer(amount);\r\n        return true; \r\n         \r\n    }\r\n     \r\n}\r\n\r\n\r\n\r\n\r\n\r\n\r\n\r\n\r\n\r\n\r\n\r\n\r\n\r\n\r\n\r\n\r\n\r\n\r\n\r\n",
  "sourcePath": "C:\\vasanthi\\ClearingFirm\\contracts\\TradingAccount.sol",
  "compiler": {
    "name": "solc",
    "version": "0.4.24+commit.e67f0147.Emscripten.clang"
  },
  "schemaVersion": "2.0.1",
  "updatedAt": "2018-08-27T03:48:59.208Z"
}