{
  "contractName": "TradingAccount",
  "abi": [
    {
      "constant": true,
      "inputs": [
        {
          "name": "",
          "type": "address"
        }
      ],
      "name": "balance",
      "outputs": [
        {
          "name": "",
          "type": "uint256"
        }
      ],
      "payable": false,
      "stateMutability": "view",
      "type": "function"
    },
    {
      "constant": true,
      "inputs": [],
      "name": "getbalance",
      "outputs": [
        {
          "name": "Amount",
          "type": "uint256"
        }
      ],
      "payable": false,
      "stateMutability": "view",
      "type": "function"
    },
    {
      "constant": false,
      "inputs": [
        {
          "name": "amount",
          "type": "uint256"
        }
      ],
      "name": "deposit",
      "outputs": [
        {
          "name": "success",
          "type": "bool"
        }
      ],
      "payable": true,
      "stateMutability": "payable",
      "type": "function"
    },
    {
      "constant": false,
      "inputs": [
        {
          "name": "amount",
          "type": "uint256"
        }
      ],
      "name": "withdraw",
      "outputs": [
        {
          "name": "success",
          "type": "bool"
        }
      ],
      "payable": true,
      "stateMutability": "payable",
      "type": "function"
    }
  ],
  "bytecode": "0x608060405234801561001057600080fd5b50610374806100206000396000f300608060405260043610610062576000357c0100000000000000000000000000000000000000000000000000000000900463ffffffff1680632e1a7d4d146100675780634d9b3d5d1461009f578063b6b55f25146100ca578063e3d670d714610102575b600080fd5b61008560048036038101908080359060200190929190505050610159565b604051808215151515815260200191505060405180910390f35b3480156100ab57600080fd5b506100b461021d565b6040518082815260200191505060405180910390f35b6100e860048036038101908080359060200190929190505050610264565b604051808215151515815260200191505060405180910390f35b34801561010e57600080fd5b50610143600480360381019080803573ffffffffffffffffffffffffffffffffffffffff169060200190929190505050610330565b6040518082815260200191505060405180910390f35b60003373ffffffffffffffffffffffffffffffffffffffff16318210151561018057600080fd5b81600160003373ffffffffffffffffffffffffffffffffffffffff1673ffffffffffffffffffffffffffffffffffffffff168152602001908152602001600020600082825403925050819055503373ffffffffffffffffffffffffffffffffffffffff166108fc839081150290604051600060405180830381858888f19350505050158015610213573d6000803e3d6000fd5b5060019050919050565b6000600160003373ffffffffffffffffffffffffffffffffffffffff1673ffffffffffffffffffffffffffffffffffffffff16815260200190815260200160002054905090565b6000807fffffffffffffffffffffffffffffffffffffffffffffffffffffffffffffffff90508083600160003373ffffffffffffffffffffffffffffffffffffffff1673ffffffffffffffffffffffffffffffffffffffff16815260200190815260200160002054011015156102d957600080fd5b82600160003373ffffffffffffffffffffffffffffffffffffffff1673ffffffffffffffffffffffffffffffffffffffff168152602001908152602001600020600082825401925050819055506001915050919050565b600160205280600052604060002060009150905054815600a165627a7a723058205be41c6ae6b5f10b1a1c9bced03bd7d394984cd0273d96c74806665117f98a7f0029",
  "source": "pragma solidity ^0.4.17;\r\n\r\n\r\ncontract TradingAccount\r\n{\r\n\r\n    uint BrokerageID;\r\n   \r\n    mapping(address=>uint256) public balance;\r\n\r\n    function  getbalance() public view returns(uint Amount)\r\n    {\r\n        return balance[msg.sender];\r\n    }\r\n\r\n    function deposit(uint256 amount) public payable returns(bool success) \r\n    {\r\n        uint max = 2**256-1;\r\n        require (balance[msg.sender]+amount < max);\r\n        balance[msg.sender] += amount;\r\n        return true;\r\n    }\r\n    \r\n  \r\n    function withdraw(uint amount) public payable returns(bool success)\r\n     {\r\n         \r\n        require(amount < address(msg.sender).balance);\r\n        balance[msg.sender] -= amount;\r\n        msg.sender.transfer(amount);\r\n        return true; \r\n         \r\n    }\r\n     \r\n}\r\n\r\n\r\n\r\n\r\n\r\n\r\n\r\n\r\n\r\n\r\n\r\n\r\n\r\n\r\n\r\n\r\n\r\n\r\n\r\n",
  "sourcePath": "C:\\vasanthi\\ClearingFirm\\contracts\\TradingAccount.sol",
  "compiler": {
    "name": "solc",
    "version": "0.4.24+commit.e67f0147.Emscripten.clang"
  },
  "schemaVersion": "2.0.1",
  "updatedAt": "2018-08-14T20:49:29.277Z"
}